:020000040800F2
:1000000010130020A1010008B32A0008A72400084B
:10001000B12A0008FD030008AD3000080000000010
:10002000000000000000000000000000B72A0008E7
:100030008904000800000000B52A0008B92A000859
:10004000BB010008BB010008BB010008BB010008A0
:10005000BB010008BB010008BB010008BB01000890
:10006000BB010008BB010008BB010008BB01000880
:10007000BB010008BB01000801040008BB01000827
:10008000BB010008BB010008AD020008BB0100086D
:10009000BB010008BB010008BB010008BB01000850
:1000A000692B0008BB010008BB010008BB01000868
:1000B000BB010008BB010008BB010008BB01000830
:1000C000BB010008BB010008BB010008BB01000820
:1000D000BB010008BB010008BB010008A1300008FB
:1000E000BB010008BB010008BB010008BB01000800
:1000F000BB010008BB010008BB010008BB010008F0
:10010000BB010008BB010008752B0008BB010008FB
:10011000BB010008BB010008BB010008BB010008CF
:10012000BB010008BB010008BB010008BB010008BF
:10013000BB0100080000000000000000BB01000837
:10014000BB010008BB010008BB010008BB0100089F
:10015000BB010008BB010008BB010008BB0100088F
:10016000BB010008BB010008BB010008BB0100087F
:10017000BB010008BB0100080000000000000000F7
:10018000BB010008BB010008DFF810D000F07CF8CC
:100190000048004711330008AFF30080101300201F
:1001A0000648804706480047FEE7FEE7FEE7FEE711
:1001B000FEE7FEE7FEE7FEE7FEE7FEE7592B000855
:1001C000890100082DE9F05F0546002092469B4614
:1001D00088460646814640241BE02846414647465D
:1001E000224600F041F853465A46C01A914110D3B6
:1001F00011461846224600F028F82D1A67EB010830
:100200004F4622460120002100F01FF817EB00099D
:100210004E41201EA4F10104DFDC484631462A4647
:100220004346BDE8F09FD2B201E000F8012B491E21
:10023000FBD270470022F6E710B513460A46044683
:100240001946FFF7F0FF204610BD202A04DB203AB4
:1002500000FA02F1002070479140C2F1200320FA19
:1002600003F3194390407047202A04DB203A21FA17
:1002700002F00021704721FA02F3D040C2F12002BF
:100280009140084319467047064C074D06E0E06868
:1002900040F0010394E8070098471034AC42F6D3CD
:1002A000FFF776FFE43400080435000810B5054870
:1002B00000F076FA044800F073FABDE810400348F5
:1002C00000F06EBA60000020A8000020F0000020BE
:1002D000464910B54A6822F440324A604A68436889
:1002E0001A434A6001684A6822F480724A600168D1
:1002F0004A68036942EA03224A6001684A6822F0B8
:1003000040724A6001684A6883681A434A6001681B
:100310008A6822F400628A6001688A68C3681A43A6
:100320008A60816A6FF07062D14201688A6822F047
:1003300070628A6001688A680CD0836A1A438A6096
:1003400001688A6822F040528A6001688A68C36A3C
:100350001A4301E022F040528A6001688A6822F064
:1003600002028A6001688A68037E42EA43028A6068
:1003700090F82010002901684A680FD042F400620A
:100380004A6001684A6822F460424A6001684A682B
:10039000174C436A04EB43331A4301E022F4006232
:1003A0004A600168CA6A22F47002CA620168CA6AB5
:1003B000838B104C04EB03531A43CA6201688A68AA
:1003C00022F400728A6001688A6890F8303042EA4C
:1003D00043228A6001688A6822F480628A60016828
:1003E0008A68406942EA8020886010BD002301408D
:1003F00000E0FFFF0000F0FF02F0AAB8FEE70000F7
:10040000014800F061BC000044020020016818238C
:10041000CAB2103AB2FBF3F2054B6FF30901032A9B
:100420009B5CC36500D9091D8165084670470000C3
:10043000C434000810B5014600208B698A6A4FF069
:10044000C07453B1B3F5005F15D072B1012A0CD05E
:10045000022A0AD0032A09D104E01AB1012A06D0DF
:10046000022A03D1C96AC90100D5012010BDC96A99
:10047000A142FAD010BD002AF7D0012AF2D0022AF8
:10048000F3D0032AF3D010BD704772B6FEE7000028
:1004900070B590F83C20694D012A19D0012280F8EE
:1004A0003C200A6807230468092A13D9E6680A3A37
:1004B00002EB420293409E43E6600A788B680A3A58
:1004C00002EB420293400268D4682343D36010E0F9
:1004D000022070BD266902EB420293409E432661D2
:1004E0000A788B6802EB4202934002681469234346
:1004F00013610268936B23F4401393630268936B58
:100500000C8A4F4E06EB0454234393630A790B7C09
:10051000D21AD21C02EB82021F2393400268946B12
:100520009C4394630A790B7CD21AD21C02EB82039F
:100530000A8892B29A4003689C6B22439A638A6944
:10054000AA420268936823F4702393600268936858
:100550000CD08C69234393600268936823F44013A2
:10056000936002689368CC69234301E023F440134D
:1005700093604A7D002A0268536802D043F4806386
:1005800001E023F4806353600A7D002A0268536807
:1005900002D043F4805301E023F4805353604A684F
:1005A000012A16D0022A1FD0032A026827D0136A14
:1005B0006FF30B0313620268136ACC682343136260
:1005C000214B04681F4A9C4227D10C68122C20D072
:1005D00023E0026853696FF30B03536102685369A8
:1005E000CC6823435361EBE7026893696FF30B0315
:1005F000936102689369CC6823439361E0E7D36910
:100600006FF30B03D3610268D369CC682343D361D2
:10061000D6E7546844F48004546004689C4208D1CE
:100620000968102901D0112903D1516841F4000152
:100630005160002180F83C10084670BD01000F0099
:100640000000F0FF0023014000200140704700003F
:1006500078B50024009490F83C20012A19D001229A
:1006600080F83C200A6807230568092A13D9EE6838
:100670000A3A02EB420293409E43EE600B788A688E
:100680000A3B03EB43039A400368DD682A43DA60C0
:1006900010E0022078BD2E6902EB420293409E4397
:1006A0002E610B788A6803EB43039A4003681D6947
:1006B0002A431A614A681F23072A13D205686E6B02
:1006C000521E02EB820293409E436E630B790A88AE
:1006D0005B1E92B203EB83039A4003685D6B2A436F
:1006E0005A6327E005680D2A12D22E6BD21F02EB47
:1006F000820293409E432E630B790A88DB1F92B2DD
:1007000003EB83039A4003681D6B2A431A6311E0CD
:10071000EE6A0D3A02EB820293409E43EE620B7941
:100720000A880D3B92B203EB83039A400368DD6AAB
:100730002A43DA62164B0568144A9D4206D10D68B9
:10074000122D03D1556845F48005556005689D421A
:1007500018D10B68102B01D0112B13D1536843F41F
:1007600000035360096810290CD10A490A4A096834
:10077000B1FBF2F101EB8101490000E0491E00915B
:100780000029FBD180F83C40002078BD00230140C7
:10079000002001405C00002040420F00704770477D
:1007A00070B5044600680668456816F0020F05F04B
:1007B00020012AD049B3216CC90603D4216C41F42D
:1007C00000712164816811F0405F17D1217EA9B9C1
:1007D000C16A11F4700F02D0816849050ED44168D6
:1007E00021F020014160206C20F480702064206C96
:1007F000C00403D4206C40F0010020642046FFF7C1
:10080000CDFF21686FF01200086016F0040F05F0AC
:10081000800132D089B3206CC00603D4206C40F430
:10082000005020642068816811F4401F1ED1816B44
:1008300011F4401F02D08168490517D44168490569
:1008400014D4816811F0405F10D1217E71B94168E4
:1008500021F080014160206C20F480502064206CE5
:10086000C00503D4206C40F0010020642046FFF74F
:10087000EDFE21686FF00C00086016F0010F05F026
:1008800040010FD071B120680068C0070AD0206C09
:1008900040F480302064204600F043F821686FF077
:1008A0000100086016F0200F05F080610ED00029CD
:1008B0000CD0606C40F00200606420686FF020058E
:1008C00005602046FFF76BFF2068056070BD70B5BE
:1008D00004004FF0000503D0206C002610B107E0A3
:1008E000012070BD204600F01DF8666484F83C606D
:1008F000206CC00610D4206C20F4885040F0020018
:1009000020642046FFF7E4FC6664206C20F00200BF
:1009100040F00100206400E0012584F83C60284696
:1009200070BD7047F0B587B0044614216846FFF7E4
:1009300081FC3849364E276800243648143907238D
:100940000325354AB74213D1066846F4807606601F
:10095000006800F480700590086840F004000860AA
:100960000868694600F0040005900294104617E0FC
:10097000DFF8A8C02A4E674520D1026842F4007211
:100980000260006800F400700590086840F0010003
:1009900008600868694600F001000590029430463E
:1009A000CDE9003500F07EFB00220121122000F08D
:1009B00033FD122000F023FD07B0F0BD194B9F421C
:1009C000FAD1036843F480630360006800F4806038
:1009D0000590086840F004000860086800F0040012
:1009E0000590086840F0010008600868082700F0DA
:1009F000010000970590CDE901546946104600F0CA
:100A000051FB0097CDE9015469463046CAE7000022
:100A1000002001404438024000080240002101400B
:100A2000000002400022014070B5040003D094F899
:100A3000200010B104E0012070BD204600F082F8D3
:100A40002068016841F00101016000F031FC0546B9
:100A5000052604E000F02CFC401B0A2811D8206871
:100A60004068C007F6D02068016821F002010160EB
:100A700000F01EFC05460BE000F01AFC401B0A28A3
:100A800006D9606A40F40030606284F82060D2E7E2
:100A9000206840688007EFD4207E01282068016824
:100AA0003DD021F080010160607E0128206801684E
:100AB00038D021F040010160A07E01282068016843
:100AC00033D021F020010160E07E01282068016818
:100AD0002ED041F010010160207F012820680168BC
:100AE00029D021F008010160607F01282068016899
:100AF00024D021F004010160D4E902010843D4E9C3
:100B00000412114308436168491E08432168C86103
:100B100000206062012084F82000002070BD41F0B8
:100B20008001C0E741F04001C5E741F02001CAE77C
:100B300021F01001CFE741F00801D4E741F00401B2
:100B4000D9E7000010B586B0044614216846FFF7C7
:100B500071FB14492068884221D1134800210268A2
:100B600042F000720260006800F0007005900E48CC
:100B70001038026842F002020260006800F00200D1
:100B800005904FF4407000900220CDE90101032050
:100B90000390092004906946044800F083FA06B0E7
:100BA00010BD0000006400404038024000040240D4
:100BB0002DE9F0410446876D00F07AFB064694F873
:100BC00035000025022806D08020606584F8345066
:100BD0000120BDE8F0812068016821F01601016064
:100BE0002068416921F080014161206C08B9A06C46
:100BF00020B12068016821F00801016020680168C7
:100C000021F0010101600CE000F052FB801B05287F
:100C100007D920206065032084F8350084F834501B
:100C2000D7E720680068C007EED194F85C103F2039
:100C30008840B860012084F8350084F834500020E2
:100C4000C7E790F83510022903D0802141650120C3
:100C50007047052180F835100068016821F0010116
:100C600001600020704770B504002BD094F8350067
:100C7000022826D02068016821F001010160206867
:100C80000025056020684560206885602068C56093
:100C9000206805612168212048612046FFF7B6FBE6
:100CA000E56325646564A564E564256594F85C20C6
:100CB0003F2191408160656584F8355084F8345057
:100CC000002070BD012070BD2DE9F84304464FF0AF
:100CD0000009CDF8009063484FF41651A56D0068E7
:100CE000B0FBF1F72E6894F85C10082000FA01F1CF
:100CF00031420FD021680A6852070BD50A6822F0EA
:100D000004020A6094F85C108840A860606D40F0AE
:100D10000100606594F85C104FF0010808FA01F0DA
:100D2000304208D021684969090604D5A860606D81
:100D300040F00200606594F85C1004208840304266
:100D400008D021680968890704D5A860606D40F063
:100D50000400606594F85C1010208840304218D080
:100D600021680968090714D5A8602068016849034B
:100D700004D50068000308D5A16C07E00168C90527
:100D800003D4016821F008010160216C09B12046FB
:100D9000884794F85C1020208840304231D0216888
:100DA0000968C9062DD5A86094F835000528206883
:100DB000016806D0490347D5006800031DD4616C63
:100DC0001CE021F0160101602068416921F08001DA
:100DD0004161206C08B9A06C20B12068016821F045
:100DE0000801016094F85C103F208840A86084F8F6
:100DF000358084F83490216D1FE0E16B09B1204605
:100E00008847606D00282BD0606DC00714D0052086
:100E100084F835002068016821F001010160009824
:100E2000401C0090B84203D820680068C007F6D183
:100E300084F8358084F83490E16C002910D001B03A
:100E40002046BDE8F04308470168C905D5D40168CC
:100E500021F01001016084F8358084F83490CCE7EB
:100E6000BDE8F8835C0000202DE9F041044600F065
:100E70001FFA06465CB1022084F83500002584F88C
:100E800034502068016821F0010101600DE001206B
:100E9000BDE8F08100F00CFA801B052805D9202060
:100EA0006065032084F83500F2E720680068C00719
:100EB000F0D12268116820480140D4E901031843A9
:100EC000D4E903363343184363691843A3691843CD
:100ED000E3691843236A18430843616A042903D16C
:100EE000D4E90B1319430843106020684069666A0F
:100EF00020F0070130460E43012704280CD1A06AD8
:100F00000643E06A40B12046FFF794FA20B1402042
:100F1000606584F83570BAE7206846612046FFF7BF
:100F200075FA94F85C203F2191408160656584F8F2
:100F300035700020ACE700003F8010F02DE9F04F45
:100F40000022DFF838B101264FF00F0906FA02F44B
:100F500001EA0403A3427DD122F003075F44D7F8DE
:100F6000088895074FEA157C09FA0CFA0AEA080581
:100F7000DFF80C81404502D14FF0000832E0DFF885
:100F80000481404502D14FF001082BE0DFF8F880E2
:100F9000404502D14FF0020824E0DFF8F0804045E0
:100FA00002D14FF003081DE0DFF8E480404502D194
:100FB0004FF0040816E0DFF8DC80404502D14FF026
:100FC00005080FE0DFF8D080404502D14FF0060859
:100FD00008E0DFF8C880404502D14FF0070801E083
:100FE0004FF0080808FA0CF8A84522D12C4DD5F886
:100FF00000C02CEA030CC5F800C005F1040CDCF8B5
:1010000000509D43CCF80050254D0C35D5F800C05C
:101010002CEA030CC5F800C02D1FD5F800C02CEA3F
:10102000030CC5F800C0D7F8085825EA0A05C7F828
:101030000858056857000323BB409D430560D50849
:1010400000EB8505D5F820C057074FEAD76809FAA5
:1010500008F700E00CE02CEA070CC5F820C0C568D2
:101060009D43C5604568A543456084689C43846092
:10107000521C102AFFF46AAFBDE8F08F0030014027
:10108000000002400004024000080240000C024040
:10109000001002400014024000180240001C0240F0
:1010A000003C01402DE9F84FDFF8BCA100220125EA
:1010B00003264FF00F090AF1040BAAF1040E00BF3A
:1010C0000B6805FA02F42340A34270D10F7907F0B0
:1010D0000307012F01D0022F16D187684FEA42087B
:1010E00006FA08FC27EA0C07D1F80CC00CFA08FC39
:1010F0004CEA070CC0F808C04768A7430C79C4F352
:10110000001494403C4344600C79E443A4070AD0A3
:10111000C4684FEA420C06FA0CF7BC438F6807FA22
:101120000CF72743C7600C7904F00304022C12D19A
:10113000D40800EB840CDCF820405707FF0E09FAB6
:1011400007F824EA0804D1F8108008FA07F848EAFA
:101150000408CCF8208004684FEA420C06FA0CF729
:10116000BC430F7907F0030707FA0CF72743076022
:101170004C6814F4403F70D03C4C276847F48047DB
:101180002760246822F0030704F480440094384C5C
:1011900007EB040CDCF8084897074FEA177809FAC0
:1011A00008F7BC43334FB84202D1002724E054E093
:1011B000314FB84201D101271EE0304FB84201D172
:1011C000022719E02E4FB84201D1032714E02D4F1A
:1011D000B84201D104270FE02B4FB84201D10527B7
:1011E0000AE02A4FB84201D1062705E0284FB8424D
:1011F00001D1072700E0082707FA08F72743CCF8B2
:101200000878DAF800405746D1F804C09C435FEAFA
:10121000CC2C00D51C433C60DBF800405F46D1F885
:1012200004C09C435FEA8C2C00D51C433C60DEF874
:1012300000407746D1F804C09C435FEA8C3C00D55F
:101240001C433C60084F083F3C68D1F804C09C43F5
:101250005FEACC3C00D51C433C60521C102AFFF4D2
:101260002FAFBDE8F88F0000083C01404438024031
:10127000003001400000024000040240000802402B
:10128000000C02400010024000140240001802400E
:10129000001C0240426921EA02030A4043EA02417B
:1012A000816170470AB1816170470904FBE7000062
:1012B00001488068704700005000002070B50400AD
:1012C00013D021684CF6CC400860216845F2555097
:1012D0000860D4E9000141602168A0688860FFF7D8
:1012E000E7FF054641F601060DE0012070BD00BF95
:1012F000FFF7DEFF401BB04205D92068C0688007B9
:1013000001D0032070BD2068C0688007F0D121683B
:101310004AF6AA200860002070BD00684AF6AA219B
:101320000160002070470000024881680278114483
:1013300081607047500000200B4810B5016841F4EF
:1013400000710160016841F480610160016841F44D
:1013500080710160032000F07FF80F2000F006F894
:1013600000F024F8002010BD003C024070B50D4D87
:1013700004464FF47A712878B1FBF0F00A49096805
:10138000B1FBF0F000F01AFB48B9102C07D2002294
:101390002146501E00F040F800206C6070BD012016
:1013A00070BD0000500000205C0000200A4808B515
:1013B000016841F480410160006800F480400090C1
:1013C0000548001F016841F080510160006800F08D
:1013D0008050009008BD00004438024000280DDB1A
:1013E00000F01F02012191404009800000F1E0203F
:1013F000C0F88011BFF34F8FBFF36F8F7047002885
:1014000009DB00F01F02012191404009800000F13A
:10141000E020C0F800117047F0B40E4B1B680C467A
:10142000C3F30223C3F10705042D00D90425191DB8
:10143000072901D2002300E0DB1E012606FA05F190
:10144000491E214099409E40761E16403143F0BC13
:1014500001F02DBE0CED00E0064900F0070208681F
:101460004FF6FF03184040EA0220034A1043086089
:10147000704700000CED00E00000FA052DE9F04790
:101480000E46050065D0DFF81481D8F80000F7B2E9
:1014900000F00700B04207D288F80070D8F80000CA
:1014A00000F00700B04254D128683D4C810712D5A6
:1014B000400703D5206840F4E050206028780007FA
:1014C00003D5206840F4604020602068A96820F0BF
:1014D000F000084320602878C0072DD030496868A4
:1014E0000839012812D0022813D0032811D0096826
:1014F000890700292DDA216821F0030101432160C9
:10150000FFF7D6FE814641F2883A0EE0096889036A
:10151000EFE709688901ECE7FFF7CAFEA0EB0901D4
:10152000514502D90320BDE8F0872068696800F0C2
:101530000C00B0EB810FEFD1D8F80010404601F05D
:101540000701B14207D90770006800F00700B042F8
:1015500001D00120E7E72878400705D52068E96831
:1015600020F4E050084320602878000706D5206862
:10157000296920F4604040EAC100206000F038F89A
:101580002168084AC1F30311515CC840064908604C
:1015900006480068FFF7EAFE0020C4E7003C02406E
:1015A00008380240CC3400085C00002054000020C1
:1015B0000448054900680968044AC1F38221515C66
:1015C000C84070475C00002008380240DC34000846
:1015D0000448054900680968044AC1F34231515C76
:1015E000C84070475C00002008380240DC34000826
:1015F000154810B5006810F00C02144813D04110C3
:10160000042A0FD0082A0ED10F4C241F2268236809
:1016100002F03F025B0207D52068C0F38810A0FBF0
:10162000010106E0084610BD2168C1F38811A1FB45
:1016300000010023FEF7C6FD2168C1F30141491CEA
:101640004900B0FBF1F010BD083802400024F4005E
:101650002DE9F84F04006ED02078DFF84C93C007D6
:10166000A9F104054AD009F104000168C1F3810120
:10167000012908D00068C0F3810002280AD1D9F8F6
:101680000000400206D52868800337D5606800282E
:10169000E1D033E06068B0F5803F10D0B0F5A02F06
:1016A000286810D020F480302860286820F480203A
:1016B00028606068A8B1FFF7FBFD06460DE02868CA
:1016C00040F48030F4E740F480202860F7E700BF62
:1016D000FFF7EEFD801B642873D828688003F7D5D8
:1016E0000CE0FFF7E5FD064605E000BFFFF7E0FD73
:1016F000801B6428F0D828688003F7D42078DFF8AE
:10170000AC8280074FF0000A3ED5A748001D016853
:1017100011F00C0F08D00068C0F3810002280BD133
:10172000D9F80000400207D42868800716D5E06881
:10173000012800D112E033E1E068B8B10120C8F817
:101740000000FFF7B5FD064605E000BFFFF7B0FD5E
:10175000801B0228C0D828688007F7D5286821692F
:1017600020F0F80040EAC10028600DE0C8F800A0B1
:10177000FFF79EFD064604E0FFF79AFD801B022856
:101780001FD828688007F7D42078000722D5864F15
:1017900087486169703771B101210160FFF788FDE9
:1017A000064604E0FFF784FD801B022809D838684C
:1017B0008007F7D50EE0C0F800A0FFF779FD0646D8
:1017C00005E082E0FFF774FD801B02287DD83868B1
:1017D0008007F7D42078400768D5DFF8CCB1002720
:1017E0000BF13C0BDBF80000C0000BD4DBF8001061
:1017F00041F08051CBF80010DBF80000012700F029
:10180000805000906B4E3068C00510D4306840F4B2
:1018100080703060FFF74CFD009005E0FFF748FD59
:101820000099401A022850D83068C005F6D55E4E9F
:10183000A0686C3601280FD00528306810D020F041
:1018400001003060306820F004003060A068B8B15A
:10185000FFF72EFD00900FE0306840F00100F4E744
:1018600040F004003060F7E7FFF722FD0099411ACD
:1018700041F28830814266D830688007F4D50EE0A6
:10188000FFF716FD009007E0FFF712FD0099411ADF
:1018900041F28830814256D830688007F4D42FB1A5
:1018A000DBF8001021F08051CBF80010A069C8B31C
:1018B0003D49091D0968C1F3810102294AD0022866
:1018C000504607D0C8F8600000E03CE0FFF7F0FCAD
:1018D00004463BE04746C8F86000FFF7E9FC0646CF
:1018E00005E000BFFFF7E4FC801B02282BD8286826
:1018F0008001F7D4D4E907010843A16A2E4A4908B8
:1019000002EB0141626A41EA8211084394F82C100B
:1019100040EA0161C9F8001001203866FFF7C8FCF1
:10192000044606E03EE000BFFFF7C2FC001B0228B1
:1019300009D828688001F7D534E000BFFFF7B8FC6C
:10194000001B022802D90320BDE8F88F2868800117
:10195000F4D427E00128F7D0D9F80000E26900F4B8
:10196000800191421CD1226A00F03F01914217D1BF
:1019700047F6C071626A0140B1EB821F10D1A26AC2
:101980004FF0FF3300F4403103EB5202B1EB024F52
:1019900006D194F82C1000F07060B0EB016F01D00C
:1019A0000120D1E70020CFE7043802400000474281
:1019B000800E4742007000400000FFFF10B5401E3F
:1019C000B0F1807F01D3012010BD4FF0E0246061B1
:1019D0000F21601701F06BFB0020A0610720206140
:1019E000002010BD7047704710B590F83C20012AC8
:1019F00022D0012280F83C20CA688C6822F4407210
:101A000022434C6822F4806222430C6822F4006274
:101A100022430C6922F4805222434C6922F4005282
:101A20002243C969002322F480420A4301684A64C0
:101A300080F83C30002010BD022010BD70B590F839
:101A40003C20012A32D0012480F83C40022280F858
:101A50003D2003685A689D6822F070060A68324388
:101A60005A60134B02689A4214D0B2F1804F11D0E1
:101A7000104B9A420ED0104B9A420BD00F4B9A4209
:101A800008D00F4B9A4205D00E4B9A4202D00E4B13
:101A90009A4204D1496825F080031943916080F887
:101AA0003D40002180F83C10084670BD022070BD0A
:101AB000000001400004004000080040000C00400D
:101AC00000040140004001400018004010B504002F
:101AD00003D094F83D0010B107E0012010BD0020B4
:101AE00084F83C00204600F01FF8022084F83D00F6
:101AF000211D206801F044F8012084F8460084F894
:101B00003E0084F83F0084F8400084F8410084F8E7
:101B1000420084F8430084F8440084F8450084F8C7
:101B20003D00002010BD000008B50068154988423E
:101B30000FD11548016841F00101016000680022E1
:101B400000F00100009011461820FFF765FC1820F6
:101B500012E00E49884213D10B48001F016841F082
:101B6000080101600068002200F0080000900221D6
:101B70003220FFF751FC3220BDE80840FFF73FBCA0
:101B800008BD00000000014044380240000C004045
:101B900090F83D10012901D001207047022180F802
:101BA0003D100168CA6842F00102CA60006811492C
:101BB000884214D0B0F1804F11D00F4988420ED026
:101BC0000E4988420BD00E49884208D00D49884200
:101BD00005D00D49884202D00C49884204D1816861
:101BE00001F00701062903D0016841F001010160FD
:101BF0000020704700000140000400400008004041
:101C0000000C00400004014000400140001800406A
:101C100070B5044690F83C000025012817D0012635
:101C200084F83C60022084F83D002068826822F03D
:101C3000770222F47F4282600868502838D00DDC99
:101C400020284FD005DC90B3102811D14AE00220A3
:101C500070BD302846D040280AD13BE060282FD004
:101C600070280DD0B0F5805F03D0B0F5005F12D0C2
:101C7000012584F83D60002084F83C00284670BDB2
:101C8000CB68D1E90121206800F0E2FF206881687B
:101C900041F0770109E0CB68D1E90121206800F02B
:101CA000D7FF2068816841F480418160E1E719E055
:101CB000CA684968206801F09FF85021206806E052
:101CC000CA684968206801F0A8F86021206800F01F
:101CD000C9FFCEE7CA684968206801F08DF8402145
:101CE0002068F4E7226801461046F0E770472DE9C6
:101CF000F04104460068C66805694FF00007A9076F
:101D000013D5B10711D5F91E016101202077206894
:101D100080698007204602D0FFF7E8FF04E000F06A
:101D2000BFF8204600F051F92777680716D57007ED
:101D300014D521686FF00400086102202077206824
:101D4000806910F4407F204602D0FFF7CFFF04E007
:101D500000F0A6F8204600F038F92777280715D5B7
:101D6000300713D521686FF0080008610420207740
:101D70002068C0698007204602D0FFF7B7FF04E063
:101D800000F08EF8204600F020F92777E80616D5F7
:101D9000F00614D521686FF0100008610820207744
:101DA0002068C06910F4407F204602D0FFF79EFFF4
:101DB00004E000F075F8204600F007F92777E807FF
:101DC00008D0F00706D021686FF0010008612046B6
:101DD00000F0FCF8280608D5300606D521686FF01B
:101DE000800008612046FFF7FDFD680608D57006F3
:101DF00006D521686FF040000861204600F0F0F839
:101E0000A8060AD5B00608D521686FF02000086141
:101E10002046BDE8F041FFF7E6BDBDE8F0810000D7
:101E200070B586B0044614216846FEF703FA1849D7
:101E30002068884229D117480024016841F0020136
:101E40000160016801F002010591016841F00101A2
:101E500001600068022500F0010005904FF4604029
:101E60000090CDE901540126CDE9034669460A48B0
:101E7000FFF718F94FF4E0600090CDE90154CDE987
:101E8000034669460548FFF70DF906B070BD00002E
:101E900000000140303802400004024000000240CF
:101EA000704770B5044690F83C0000260D460128A6
:101EB0000FD0012084F83C006AB1042A1DD0082A02
:101EC0002FD00C2A3FD00126002084F83C00304659
:101ED00070BD022070BD206800F0CCFE20688169D2
:101EE00041F0080181612068816921F0040181616C
:101EF000206881692A69114311E0206800F0EAFE38
:101F00002068816941F4006181612068816921F460
:101F100080618161206881692A6941EA02218161C9
:101F2000D2E7206800F00CFF2068C16941F0080189
:101F3000C1612068C16921F00401C1612068C169E3
:101F40002A69114311E0206800F02EFF2068C16962
:101F500041F40061C1612068C16921F48061C161FF
:101F60002068C1692A6941EA0221C161ACE710B564
:101F7000040003D094F83D0010B107E0012010BD2B
:101F8000002084F83C00204600F01EF8022084F86F
:101F90003D00211D206800F0F3FD012084F846007B
:101FA00084F83E0084F83F0084F8400084F8410043
:101FB00084F8420084F8430084F8440084F8450023
:101FC00084F83D00002010BD704770470068034949
:101FD000884201D101F02ABA70470000000C00408D
:101FE0007047704710B5040015D0242084F84100D4
:101FF0002068C16821F40051C160204600F0B2F9A8
:102000000020606484F8410084F8420044F8300FF6
:102010006060207410BD012010BD000038B501685B
:102020000446086848680090086848680090086896
:10203000486800900868486800902046FFF7D2FF83
:1020400008B1FEF722FA204600F05AF908B1FEF76F
:102050001CFA0849206888420AD10122064907482B
:1020600000F0FAF9002803D0BDE83840FEF70DBAB9
:1020700038BD00000048004044000020FC01002062
:10208000F8B5016804460868CA684B6910F00F0F7C
:102090004FF0000559D003F0010602F49077374362
:1020A00065D0C10705D0D10503D5616C41F00101B0
:1020B0006164410705D5D90703D0616C41F0020185
:1020C0006164810705D5D90703D0616C41F0040133
:1020D0006164010707D502F02001314303D0616C30
:1020E00041F008016164616C00293AD0800604D592
:1020F000900602D5204600F0D0FE20684069616C51
:10210000C0F38010090700D460B3204600F09EFEA3
:1021100020684069400621D52068143050E8001F2F
:1021200021F0400140E80012002AF5D1E06BA8B18F
:1021300072490165E06BFEF784FD002811D0E06B69
:10214000016D01B0BDE8F040084783060FD5930646
:102150000DD52046BDE8F84000F09FBE2046FFF7B1
:102160005DFFF8BD2046FFF759FF6564F8BD266B9B
:102170002023012E7ED1C6067CD5D6067AD50868E6
:102180004868009048694FF0020640064DD5E26B62
:10219000106840684FF480770004000C3AD0A18D9D
:1021A000814237D9E085D069B8422DD020680C3003
:1021B00050E8001F21F4807140E80012002AF5D198
:1021C0002068143050E8001F21F0010140E800129F
:1021D000002AF5D12068143050E8001F21F040019A
:1021E00040E80012002AF5D184F8423025632068C7
:1021F0000C3050E8001F21F0100140E80012002AC6
:10220000F5D1E06BFEF7D4FC6663A08DE18D401A3A
:1022100081B206E0A18D8142A8D1D069B842A5D192
:1022200066632046FFF7DDFEF8BDA08DE18D401A04
:1022300081B2E08D0028F7D00029F5D020680C305D
:1022400050E8002F22F4907240E80027002FF5D1CB
:102250002068143050E8002F22F0010240E80027E7
:10226000002FF5D184F84230256320680C3050E807
:10227000002F00E006E022F0100240E80023002BCF
:10228000F3D1CDE705062BD5150629D594F84100E5
:102290002128C9D1A068B0F5805F01D12069B0B113
:1022A000206A411C2162216800784860E08C401E51
:1022B0000004000CE084B7D12068C16821F08001DF
:1022C000C1602068C16841F04001C160F8BD206A6A
:1022D0000088C0F308004860206A801C2062E5E79F
:1022E0004006F3D55006F1D5CA68204622F04002D8
:1022F000CA6084F8413000F0D5F8F8BD3F2E0008E0
:1023000070B5040004D094F84100002510B106E037
:10231000012070BD84F84050204600F043F824208E
:1023200084F841002068C16821F40051C160204652
:1023300000F014FE2068016921F4904101612068D9
:10234000416921F02A0141612068C16841F40051CE
:10235000C1606564202084F8410084F84200656310
:10236000002070BD10B5044600680B49884211D1A9
:102370000A48016821F4802101604FF44061084857
:10238000FEF7DCFDA06BFEF76EFCBDE810402720D9
:10239000FFF724B810BD000000480040403802405C
:1023A0000004024070B586B0064614216846FDF769
:1023B00041FF24493068884241D123480025016803
:1023C00041F480210160006800F4802005901E48DF
:1023D0001038016841F0020101600068694600F0B0
:1023E000020005904FF4406000900220CDE9010505
:1023F00003200390072004901448FEF753FE154C69
:10240000134820604FF0006060604020C4E902057E
:102410000001C4E90405A561E56125622046656205
:10242000FEF722FD08B1FEF730F8B4630022042164
:102430002720A663FEF7F0FF2720FEF7E0FF06B097
:1024400070BD0000004800404038024000040240D7
:10245000586002404402002090F84230202B01D006
:102460000220704721B11AB10023036300F0FCBDC4
:1024700001207047084910B588420BD10748017800
:10248000074800F0F8FEBDE8104001220349024869
:10249000FFF7E2BF10BD0000FC0100204400002057
:1024A000E40600207047FEE72DE9F04107460328C7
:1024B00014D24FF000054FF0FF062C46204600F0E6
:1024C00023F810B16D1CEDB22646641CE4B2032C57
:1024D000F4D3012D16D1BE4211D013E005D1002056
:1024E00000F012F870B1012006E004280AD10120A2
:1024F00000F00AF830B1022000F006F810B1012017
:10250000BDE8F0810020FBE7094951F8302012694D
:1025100001EBC0018888024201D1002000E00120C7
:102520008979814201D10120704700207047000065
:10253000AC340008022807D2044A02EBC00152F86A
:1025400030008988FEF7A6BE704700009C34000862
:1025500070B586B014216846FDF76CFE1448002162
:10256000026842F0040202600068124D00F00400AC
:1025700005900120CDE901010C46039105EBC4064D
:102580006946B088009055F83400FEF78BFDB079AD
:10259000012801D0012200E00022B18855F8340062
:1025A000FEF780FE641CE4B2022CE7D306B070BDD7
:1025B000303802409C34000802280DD2074B03EB50
:1025C000C0018A79012A01D0012200E00022898815
:1025D00053F83000FEF766BE704700009C340008D8
:1025E000022808D2044B03EBC00153F830008A796B
:1025F0008988FEF757BE70479C34000870B58CB0D0
:102600000024089409940A94202168460B94FDF74D
:1026100011FE29482749012501604FF480310561E9
:10262000C0E90114047680F820402449C0E90A1466
:10263000C561C46080F830404561FEF748F908B1D3
:10264000FDF723FF0A260896CDE9095408A91A4880
:10265000FDF7FEFF08B1FDF718FFCDE900654FF467
:1026600000100295CDE9064003268DF8154004962A
:102670008DF81440694610480394FDF709FF08B12E
:10268000FDF703FF0B2000900220019069460A48E5
:10269000FDF7FEFE08B1FDF7F8FE0C20CDE90006BF
:1026A00069460548FDF7F4FE002801D0FDF7EDFE70
:1026B0000CB070BD00200140600000200100000F40
:1026C00070B58CB00025089509950A9520216846BB
:1026D0000B95FDF7AFFD28482649012401604FF412
:1026E00080310461C0E90115057680F82050234946
:1026F000C0E90A15C560C46180F830504561FEF735
:10270000E6F808B1FDF7C1FE0894099408A91A4833
:102710000A94FDF79DFF08B1FDF7B7FECDE900541F
:102720004FF400100294CDE9065003268DF81550A1
:1027300004968DF8145069460F480395FDF7A8FEDE
:1027400008B1FDF7A2FE0094022469460A480194EC
:10275000FDF79EFE08B1FDF798FECDE900466946FB
:102760000548FDF795FE002801D0FDF78EFE0CB060
:1027700070BD000000210140A80000200100000FF2
:102780007FB500211A48009101910291174A0391E7
:10279000026001244FF480320461C0E90121017616
:1027A00080F82010134AC0E90A210225C561C160E2
:1027B00080F830104461FEF78AF808B1FDF765FE35
:1027C0000D20CDE90004694609480294FDF740FF59
:1027D00008B1FDF75AFE694605480195FDF738FF37
:1027E000002801D0FDF751FE7FBD0000002201400E
:1027F000F00000200100000F0D4810B50B490160EA
:102800001021416000218160C16001614161017658
:1028100041768176C17601774177FEF705F9002888
:1028200003D0BDE81040FDF730BE10BD006400408D
:1028300038010020094808B5016841F40011016021
:102840000068002200F40010009011460E20FEF7F0
:10285000E3FDBDE808400E20FEF7D1BD3038024050
:1028600030B587B014216846FDF7E4FC1948002410
:10287000016841F080010160016801F0800105916B
:10288000016841F004010160016801F00401059153
:10289000016841F001010160016801F00101059149
:1028A000016841F00201016000680B4D00F0020078
:1028B0000590002263212846FEF7F4FC6320009077
:1028C0000120CDE90104694628460394FEF7EAFB9E
:1028D00007B030BD3038024000040240094810B54E
:1028E00007490160042141604FF4FA718160FEF7ED
:1028F000E5FC002803D0BDE81040FDF7C6BD10BDC3
:102900000030004060010020F0B595B000240F9425
:1029100010941194129413941C2168461494FDF79A
:1029200089FC202107A8FDF785FC38483649802717
:10293000C0E900142021816041F26701C0E903145D
:102940000121C0E90517FFF7C1F808B1FDF79DFDAA
:102950004FF480550FA92D480F95FFF759F908B18D
:10296000FDF793FD2948FFF702FB08B1FDF78DFD48
:10297000702613A92548CDE91367FFF75FF808B162
:10298000FDF783FD6020CDE90004029403940494D4
:102990000594002269461D480694FFF782FA08B1A3
:1029A000FDF773FD042269461848FFF77AFA08B16B
:1029B000FDF76BFD082269461448FFF772FA08B16B
:1029C000FDF763FD41F26500CDE900600C22694628
:1029D0000E48FFF766FA08B1FDF757FD079454203B
:1029E0000894CDE909404FF400500E94CDE90B5006
:1029F00007A90648FEF7F8FF08B1FDF746FD0348B2
:102A0000FFF70EFA15B0F0BD000001406C01002088
:102A100010B586B0002417480094019402940394E2
:102A200004941349059401605321C0E9011440F254
:102A3000E731C0E9031480218161FFF747F808B14D
:102A4000FDF723FD4FF48050009069460948FFF7D9
:102A5000DFF808B1FDF719FD049404A905480594B1
:102A6000FEF7ECFF002801D0FDF70FFD06B010BD0A
:102A7000000C0040B40100200C4810B50A49016068
:102A80004FF461214160002181600C22C160C0E9E6
:102A900004128161C161FFF733FC002803D0BDE857
:102AA0001040FDF7F2BC10BD00480040FC010020C2
:102AB000FEE7FEE770477047FEF736BC30B593B0CF
:102AC00030216846FDF7B6FB14210CA8FDF7B2FBD8
:102AD0001F480025016841F080510160006800F046
:102AE000805011901B48016841F4804101600068EA
:102AF000022400F480401190092000904FF48030AF
:102B000001900120CDE9050480050790042008907C
:102B1000A820CDE9090407200B906846FEF798FD30
:102B200008B172B6FEE70CA90F2081E831004FF41E
:102B3000A0500F904FF48050109005210CA8FEF784
:102B40009DFC002801D072B6FEE713B030BD000036
:102B500040380240007000400248016841F47001B2
:102B60000160704788ED00E00148FFF7C0B8000041
:102B70006C0100200148FFF7BAB80000B401002042
:102B8000F0B50268274B284D284E294F294C4FF0AD
:102B9000804C984209D0604507D0A84205D0B04289
:102BA00003D0B84201D0A04204D122F0700E4A688E
:102BB00042EA0E0298421BD0604519D0A84217D0B5
:102BC000B04215D0B84213D0A04211D01A4DA8423D
:102BD0000ED01A4DA8420BD0194DA84208D0194D5D
:102BE000A84205D0184DA84202D0184DA84203D1E2
:102BF00022F44075CA682A434D6922F080022A43B4
:102C00008D68C5620D688562984201D0A04201D1ED
:102C100009690163016841F004010160012141611A
:102C20000260F0BD000001400004004000080040C8
:102C3000000C0040000401400040014000440140FD
:102C40000048014000180040001C004000200040E7
:102C500010B5846842EA032224F47F440A432243E5
:102C6000826010BD826822F070020A4342F00701C0
:102C700081607047F0B5036A026A22F001020262C5
:102C800042688469124E24F073050C682C4323F0CB
:102C900002058B682B430D4DA84201D0B04205D1EF
:102CA00023F00807CB683B4323F00403A84201D07C
:102CB000B04205D14D6922F4407215438A692A4316
:102CC00042608461496841630362F0BD00000140D5
:102CD00000040140F0B5026A036A23F010030362A6
:102CE000436884690D6824F4E64444EA05248D6849
:102CF00022F0200242EA05120F4D104EA84201D0E8
:102D0000B04206D1CF6822F0800242EA071222F0D8
:102D10004002A84201D0B04207D14D6923F440637C
:102D200043EA85038D6943EA85034360846149680A
:102D300081630262F0BD0000000001400004014018
:102D4000F0B5026A036A23F4807303624368C469BE
:102D500022F4007224F073050C68124E2C438D6827
:102D600042EA05220E4DA84201D0B04206D1CF68FA
:102D700022F4006242EA072222F48062A84201D0D3
:102D8000B04207D14D6923F4405343EA05138D69DE
:102D900043EA05134360C4614968C1630262F0BD40
:102DA000000001400004014030B5046A026A22F4C8
:102DB000805202624268C3690D6823F4E64343EA25
:102DC00005238D6824F4005444EA0534084DA842D4
:102DD00002D0084DA84204D14D6922F4804242EA53
:102DE00085124260C36149680164046230BD00001D
:102DF000000001400004014010B5036A046A24F099
:102E000001040462846924F0F00444EA021423F00B
:102E10000A020A438461026210BD10B5036A046AA3
:102E200024F010040462846923F0A00324F47044A5
:102E300044EA023243EA01118261016210BD10B519
:102E4000806B0021C185FFF7E9F810BD01680C31E6
:102E500051E8002F22F4907241E80023002BF5D1B5
:102E60000168143151E8002F22F0010241E80023EB
:102E7000002BF5D1016B012909D101680C3151E812
:102E8000002F22F0100241E80023002BF5D1202171
:102E900080F8421000210163704708B590F8421095
:102EA000222901D0022008BD82684FF480539A4243
:102EB00001D1016921B1816A9A421BD04AB10AE06D
:102EC0000268816A5268C2F308020A80816A891C1A
:102ED00008E0026972B10268526802F07F020A706B
:102EE000816A491C8162C18D491E0904090CC18592
:102EF00003D01BE002685268F1E70168CA6822F05B
:102F00002002CA600168CA6822F48072CA6001683F
:102F10004A6922F001024A61202180F84210002112
:102F20004163026B012A03D0FFF7A4FA002008BD19
:102F3000016301680C3151E8002F22F0100241E8D2
:102F40000023002BF5D101680A68D20602D50A6871
:102F500049680091818DFFF744F8E7E770B50446B2
:102F600000680169E26821F440511143016121695F
:102F7000A068E26908436169114308432168CA688F
:102F800049F20C639A430243CA6020684169A2690E
:102F900021F440711143416131492068884202D0D7
:102FA0003049884202D1FEF713FB01E0FEF700FB37
:102FB000E2690023192164253226B2F5004F6268C8
:102FC00028D0A0FB0101930F9200FDF7FBF801460A
:102FD000B0FBF5F06FF01802504301EB800006EBF8
:102FE0000010B0FBF5F000F0F002B1FBF5F002EBE1
:102FF0000012B1FBF5F06FF01803584301EB8000AD
:1030000006EB0010B0FBF5F000F00F002168104453
:10301000886070BDA0FB010192185B41FDF7D2F8FA
:103020000146B0FBF5F00201B1FBF5F06FF01803BB
:10303000584301EB800006EBC000B0FBF5F000F058
:10304000F80002EB4002B1FBF5F0584301EB8000C1
:1030500006EBC000B0FBF5F000F00700D6E700007B
:10306000001001400014014081628285C285002168
:103070004164222180F84210016921B10168CA68C7
:1030800042F48072CA6001684A6942F001024A61F2
:103090000068C16841F02001C16000207047000055
:1030A0000148FEF7EDBF0000FC010020FEE7090724
:1030B000090E002804DB00F1E02080F800147047BE
:1030C00000F00F0000F1E02080F8141D704702E0CE
:1030D00008C8121F08C1002AFAD1704770470020A3
:1030E00001E001C1121F002AFBD1704770B50646EE
:1030F000284800EB06143046FFF7D6F905210025D5
:103100000028207906EB460331D0052801D2217131
:1031100070BD0A2802D2401C207170BDA07A06EB57
:103120004606761C20B90120A072F0B200F08EF89D
:1031300021890029F1D0E088884208D2401C80B261
:10314000E08021898842E8D1DB1CD8B20BE0E07A2C
:103150000028E2D0207B401CC0B22073E17A884274
:10316000DBD32573F0B2BDE8704000F06FB80528DE
:1031700001D921710BE010B1401E207107E0A07A47
:10318000012804D19B1CA572D8B200F05FF8E5803D
:10319000257370BDA4020020084910B509686FF0BE
:1031A000010008610548FEF7F3FCFDF725F900F082
:1031B00007F8BDE8104000F045B90000B401002058
:1031C00030B50021194887B064248172C17201733F
:1031D0000A46A0F13003022503EB0210521C0481C1
:1031E00005718172C172D2B20173032AF4D31048FF
:1031F000026842F00402026000680E4D00F0040014
:1032000005900320CDE902100191002405EBC400D4
:1032100069468088009055F83400FDF743FF641C30
:10322000E4B2032CF2D307B030BD0000D40200207A
:1032300030380240AC34000810B500242046FFF7B7
:1032400055FF641CE4B2032CF8D310BD0549CA7ABB
:103250008854C87A401CC0B2C8720A2801D3002022
:10326000C8727047D4020020C0E900120021C1607A
:10327000816001747047027C0AB100207047C36806
:103280000268D154C1684268491C914200D10021B2
:10329000C1608268914201D101210174012070470F
:1032A00010B500F007F84FF47A720023FCF78AFF9C
:1032B00010BD000070B5094800680368D86A084C62
:1032C0000022401CD4E90015A0FB014602FB01616D
:1032D00000FB0511586A2018514170BD0000002004
:1032E000480000207047FFF7A7BF704770470000F5
:1032F000044810B5816800208847BDE810400248A6
:10330000FEF70BB8380000206001002070477047BE
:10331000FEF712F8FFF7D2FBFFF7A2FAFFF78AFADF
:10332000FFF76AFAFFF7F0FAFFF768F9FFF7C8F955
:10333000FFF7D4FAFFF76CFBFFF79EFBFFF720FACD
:103340003848816841F480518160FFF725FF364C91
:10335000FFF7DDFFFFF7A4FFD4E900324FF47A75E1
:103360005B1942F10002181A8A4105D2FFF798FF53
:10337000C4E90001FFF7BAFFFFF792FFD4E9022387
:103380004FF4FA75551943F10002281A8A4105D203
:10339000FFF786FFC4E90201FFF7AAFFFFF780FFEE
:1033A000D4E90432643342F10002181A8A4105D28A
:1033B000FFF776FFC4E90401FFF797FFFFF770FFFF
:1033C000D4E906251423D31845F10002181A8A41BE
:1033D00005D2FFF765FFC4E90601FFF797FFFFF786
:1033E0005FFFD4E908250A23D31845F10002181A13
:1033F0008A4105D2FFF754FFC4E90801FFF773FFC4
:10340000FFF74EFFD4E90A23521C43F10003101AC0
:103410008B419DD2FFF744FFC4E90A01FFF762FF29
:1034200096E70000002004E0080000200448D0E9EE
:103430000021521C41F10001C0E900217047000049
:103440004800002010B501220F491048FFF704F88A
:103450004FF4806421460E48FCF7ECFE0C492246EE
:1034600001F58060FFF700FF21460A48FCF7E2FE05
:1034700021460948FCF7DEFE22460649BDE8104019
:1034800001F58060FFF7F0BE44000020FC01002041
:10349000E4020020F80A0020F8060020000802409C
:1034A0004000000000080240100000000008024038
:1034B000000401000008024000080100000802406A
:1034C0000020010000061016000610160000000083
:1034D00000000000010203040607080900000000C4
:1034E0000102030404350008000000206000000011
:1034F000CE3000086435000860000020B0120000E3
:10350000DE300008B40100200000000000000000D0
:1035100000000000000000000000000000000000AB
:10352000000000000000000000000000000000009B
:10353000000000000000000000000000E12500087D
:10354000B925000835250008000000000000000033
:10355000000000000100000010000000000000005A
:043560000024F4004F
:040000050800018965
:00000001FF
